:100000000C9462000C948A000C948A000C948A0070
:100010000C948A000C948A000C948A000C948A0038
:100020000C948A000C948A000C948A000C948A0028
:100030000C948A000C948A000C948A000C948A0018
:100040000C9497010C948A000C9407020C94E10123
:100050000C948A000C948A000C948A000C948A00F8
:100060000C948A000C948A000000000024002700F1
:100070002A0000000000250028002B0004040404CE
:100080000404040402020202020203030303030342
:10009000020203010204081020408001020408103B
:1000A00020010204081020408040000000090003E5
:1000B000020000040508000000000000000000002D
:1000C00000006A0311241FBECFEFD8E0DEBFCDBF12
:1000D00011E0A0E0B1E0E8E4F7E002C005900D9285
:1000E000A631B107D9F721E0A6E1B1E001C01D9228
:1000F000A03CB207E1F710E0C2E6D0E004C02197CF
:10010000FE010E949703C136D107C9F70E94390248
:100110000C94A2030C940000CF92DF92EF92FF9216
:100120000F931F93CF93DF936C017A018B01C0E093
:10013000D0E0CE15DF0581F0D8016D918D01D6019B
:10014000ED91FC910190F081E02DC6010995892B7C
:1001500011F02196EECF7E01C701DF91CF911F9163
:100160000F91FF90EF90DF90CF900895089580E079
:1001700090E00895FC01538D448D252F30E0842FAD
:1001800090E0821B930B541710F0CF9608950197BF
:100190000895FC01918D828D981761F0828DDF01A9
:1001A000A80FB11D5D968C91928D9F5F9F73928F6A
:1001B00090E008958FEF9FEF0895FC01918D828D5F
:1001C000981731F0828DE80FF11D858D90E008952C
:1001D0008FEF9FEF0895FC01918D228D892F90E084
:1001E000805C9F4F821B91098F73992708958AE144
:1001F00091E00E94EB0021E0892B09F420E0822F9E
:100200000895FC01848DDF01A80FB11DA35ABF4FD3
:100210002C91848D90E001968F739927848FA68905
:10022000B7892C93A089B1898C9180648C93938D2C
:10023000848D981306C00288F389E02D80818F7D1C
:1002400080830895EF92FF920F931F93CF93DF93D4
:10025000EC0181E0888F9B8D8C8D981305C0E88917
:10026000F989808185FD24C0F62E0B8D10E00F5F8B
:100270001F4F0F731127E02E8C8DE8120CC00FB6A4
:1002800007FCFACFE889F989808185FFF5CFCE0197
:100290000E940101F1CF8B8DFE01E80FF11DE35AA1
:1002A000FF4FF0820B8FEA89FB898081806207C053
:1002B000EE89FF896083E889F98980818064808381
:1002C00081E090E0DF91CF911F910F91FF90EF902F
:1002D0000895CF93DF93EC01888D8823C9F0EA89D4
:1002E000FB89808185FD05C0A889B9898C9186FD2F
:1002F0000FC00FB607FCF5CF808185FFF2CFA8892C
:10030000B9898C9185FFEDCFCE010E940101E7CF25
:10031000DF91CF91089580E090E0892B29F00E9431
:10032000F70081110C94000008950E949D031F9214
:100330000F920FB60F9211242F933F938F939F9399
:10034000AF93BF938091BC019091BD01A091BE017C
:10035000B091BF013091BB0123E0230F2D3720F472
:100360000196A11DB11D05C026E8230F0296A11D0F
:10037000B11D2093BB018093BC019093BD01A0935C
:10038000BE01B093BF018091B7019091B801A091D7
:10039000B901B091BA010196A11DB11D8093B701B9
:1003A0009093B801A093B901B093BA01BF91AF91F6
:1003B0009F918F913F912F910F900FBE0F901F90A3
:1003C00018951F920F920FB60F9211242F933F93FF
:1003D0004F935F936F937F938F939F93AF93BF934D
:1003E000EF93FF938AE191E00E940101FF91EF9169
:1003F000BF91AF919F918F917F916F915F914F913D
:100400003F912F910F900FBE0F901F9018951F9244
:100410000F920FB60F9211242F938F939F93EF9308
:10042000FF93E0912A01F0912B018081E09130014E
:10043000F091310182FD12C09081809133018F5F74
:100440008F7320913401821751F0E0913301F0E075
:10045000E65EFE4F958F8093330101C08081FF914E
:10046000EF919F918F912F910F900FBE0F901F9042
:100470001895789484B5826084BD84B5816084BD0C
:1004800085B5826085BD85B5816085BD80916E0032
:10049000816080936E001092810080918100826063
:1004A00080938100809181008160809381008091A0
:1004B00080008160809380008091B100846080938F
:1004C000B1008091B00081608093B00080917A008B
:1004D000846080937A0080917A00826080937A00B1
:1004E00080917A00816080937A0080917A008068A0
:1004F00080937A001092C100C6E9D0E0FE012491F9
:100500000FE710E0F8018491882399F090E0880FBC
:10051000991FFC01E859FF4FA591B491FC01EE58D9
:10052000FF4F859194919FB7F8948C91822B8C9377
:100530009FBFE0912A01F0912B0182E08083E0913E
:100540002601F09127011082E0912801F091290104
:1005500083E3808310923201E0912E01F0912F010C
:1005600086E08083E0912C01F0912D0180818061F3
:100570008083E0912C01F0912D018081886080833F
:10058000E0912C01F0912D01808180688083E091C1
:100590002C01F0912D0180818F7D80839DEAE92ED1
:1005A00090E0F92EDD24D39424E6C22E8FB7F89480
:1005B0004091BC015091BD016091BE017091BF019D
:1005C0008FBF8091160190911701A0911801B091F1
:1005D0001901481B590B6A0B7B0B8091010190910B
:1005E0000201A0E0B0E0481759076A077B0708F44A
:1005F0005FC0F7018491FE019491F8013491332397
:1006000009F43EC020910001882339F1843091F033
:1006100038F48230A9F0833001F584B58F7D12C0A3
:10062000883091F08930A1F08530B9F48091800054
:100630008F7D03C0809180008F77809380000DC0F4
:1006400084B58F7784BD09C08091B0008F7703C0D7
:100650008091B0008F7D8093B000E32FF0E0EE0F2B
:10066000FF1FEE58FF4FA591B4913FB7F8948C91BE
:10067000211103C09095982301C0982B9C933FBFF4
:100680002FB7F8948091BC019091BD01A091BE015B
:10069000B091BF012FBF8093160190931701A093D3
:1006A0001801B0931901809100018D2580930001FC
:1006B0008AE191E00E94C9008F3FFFEF9F0739F068
:1006C0008C9DC001112490930201809301010E942E
:1006D0008B016CCFEAE1F1E01382128288EE93E0A5
:1006E000A0E0B0E084839583A683B78387E091E0A0
:1006F0009183808385EC90E09587848784EC90E0FB
:100700009787868780EC90E0918B808B81EC90E0DE
:10071000938B828B82EC90E0958B848B86EC90E0BF
:10072000978B868B118E128E138E148E0895EE0F7A
:10073000FF1F0590F491E02D099481E090E0F8947A
:080740000C94A203F894FFCF12
:100748000164000000000022018C00BA006901EB7E
:0607580000C900DD0000F5
:00000001FF
