:100000000C945D000C9485000C9485000C94850084
:100010000C9485000C9485000C9485000C9485004C
:100020000C9485000C9485000C9485000C9485003C
:100030000C9485000C9485000C9485000C9485002C
:100040000C94A8020C9485000C9476020C94500237
:100050000C9485000C9485000C9485000C9485000C
:100060000C9485000C94850000000008000201003B
:100070000003040700000000000000000000000072
:10008000250028002B0000000000240027002A0083
:10009000040404040404040402020202020203032E
:1000A0000303030301020408102040800102040836
:1000B0001020010204081020BD0411241FBECFEF40
:1000C000D8E0DEBFCDBF21E0A0E5B1E001C01D92C8
:1000D000AA3FB207E1F711E0A0E0B1E0E8E2FAE000
:1000E00002C005900D92A035B107D9F710E0CDE51B
:1000F000D0E004C02197FE010E940C05CC35D10749
:10010000C9F70E94F2020C9412050C94000090E0D2
:10011000FC01EC55FF4F249180579F4FFC018491C7
:10012000882399F090E0880F991FFC01EA57FF4F50
:10013000A591B491FC01E458FF4F859194918FB73C
:10014000F894EC91E22BEC938FBF0895AF92BF929D
:10015000CF92DF92EF92FF920F931F93CF93DF9393
:100160006C017B018B01040F151FEB015E01AE18C2
:10017000BF08C017D10759F06991D601ED91FC91E4
:100180000190F081E02DC6010995892B79F7C50111
:10019000DF91CF911F910F91FF90EF90DF90CF9063
:1001A000BF90AF900895FC01538D448D252F30E012
:1001B000842F90E0821B930B541710F0CF96089574
:1001C00001970895FC01918D828D981761F0A28DA1
:1001D000AE0FBF2FB11D5D968C91928D9F5F9F7367
:1001E000928F90E008958FEF9FEF0895FC01918D1D
:1001F000828D981731F0828DE80FF11D858D90E08A
:1002000008958FEF9FEF0895FC01918D228D892F26
:1002100090E0805C9F4F821B91098F73992708950E
:100220008DE591E00E94040121E0892B09F420E092
:10023000822F089580E090E0892B29F00E94100120
:1002400081110C9400000895FC01A48DA80FB92F12
:10025000B11DA35ABF4F2C91848D90E001968F73EE
:100260009927848FA689B7892C93A089B1898C910D
:10027000837080648C93938D848D981306C002885C
:10028000F389E02D80818F7D80830895EF92FF9226
:100290000F931F93CF93DF93EC0181E0888F9B8DA9
:1002A0008C8D98131AC0E889F989808185FF15C063
:1002B0009FB7F894EE89FF896083E889F989808186
:1002C0008370806480839FBF81E090E0DF91CF9155
:1002D0001F910F91FF90EF900895F62E0B8D10E077
:1002E0000F5F1F4F0F731127E02E8C8D8E110CC0E6
:1002F0000FB607FCFACFE889F989808185FFF5CF31
:10030000CE010E942401F1CFEB8DEC0FFD2FF11DEA
:10031000E35AFF4FF0829FB7F8940B8FEA89FB896D
:1003200080818062CFCFCF93DF93EC01888D8823CB
:10033000B9F0AA89BB89E889F9898C9185FD03C048
:10034000808186FD0DC00FB607FCF7CF8C9185FF2D
:10035000F2CF808185FFEDCFCE010E942401E9CF4D
:10036000DF91CF91089590E0FC01E859FF4F24916F
:10037000FC01EC55FF4F3491FC01E057FF4FE49135
:10038000EE23C9F0222339F0233001F1A8F4213003
:1003900019F1223029F1F0E0EE0FFF1FE458FF4F72
:1003A000A591B4918FB7F894EC91611126C0309566
:1003B0003E233C938FBF08952730A9F02830C9F021
:1003C000243049F7809180008F7D03C080918000A8
:1003D0008F7780938000DFCF84B58F7784BDDBCFAC
:1003E00084B58F7DFBCF8091B0008F778093B00074
:1003F000D2CF8091B0008F7DF9CF3E2BDACFFC01B8
:1004000001900020E9F73197AF01481B590BBC015F
:100410008DE591E00C94A6008F929F92AF92BF92CF
:100420000F931F93CF93DF93CDB7DEB7A1970FB68E
:10043000F894DEBF0FBECDBF19A2423008F44AE0E7
:100440008E010F5D1F4F842E912CB12CA12CA50184
:1004500094010E94EA04E62FB901CA01EA30F4F4DB
:10046000E05DD801EE938D01232B242B252B79F70A
:1004700090E080E0109719F0CD010E94FF01A19655
:100480000FB6F894DEBF0FBECDBFDF91CF911F91A5
:100490000F91BF90AF909F908F900895E95CE1CF4E
:1004A0001F920F920FB60F9211242F933F934F93E9
:1004B0005F936F937F938F939F93AF93BF93EF93CC
:1004C000FF938DE591E00E942401FF91EF91BF9190
:1004D000AF919F918F917F916F915F914F913F91DC
:1004E0002F910F900FBE0F901F9018951F920F9293
:1004F0000FB60F9211242F938F939F93EF93FF9337
:10050000E0916D01F0916E018081E0917301F091B5
:10051000740182FD1BC09081809176018F5F8F7383
:1005200020917701821741F0E0917601F0E0E35AE3
:10053000FE4F958F80937601FF91EF919F918F9160
:100540002F910F900FBE0F901F9018958081F4CFC0
:100550001F920F920FB60F9211242F933F938F93F8
:100560009F93AF93BF938091550190915601A091B5
:100570005701B09158013091540123E0230F2D37DA
:1005800058F50196A11DB11D20935401809355018A
:1005900090935601A0935701B09358018091500158
:1005A00090915101A0915201B09153010196A11D6A
:1005B000B11D8093500190935101A0935201B093CB
:1005C0005301BF91AF919F918F913F912F910F90C8
:1005D0000FBE0F901F90189526E8230F0296A11DBD
:1005E000B11DD2CFCF93DF9300D0CDB7DEB77894D3
:1005F00084B5826084BD84B5816084BD85B5826028
:1006000085BD85B5816085BD80916E0081608093D8
:100610006E00109281008091810082608093810041
:100620008091810081608093810080918000816051
:10063000809380008091B10084608093B1008091AC
:10064000B00081608093B00080917A0084608093D4
:100650007A0080917A00826080937A0080917A009B
:10066000816080937A0080917A00806880937A001C
:100670001092C100E0916D01F0916E0182E08083E3
:10068000E0916901F0916A011082E0916B01F091B3
:100690006C018FEC808310927501E0917101F091F3
:1006A000720186E08083E0916F01F091700180819A
:1006B00080618083E0916F01F0917001808188609A
:1006C0008083E0916F01F091700180818068808368
:1006D000E0916F01F091700180818F7D808386E1D0
:1006E00091E00E94FF0187E291E00E94FF0183E018
:1006F0000E94870084E6782E662463949BE6C92EC8
:1007000090E0D92E20E0E22E20E0F22E8DE591E05F
:100710000E940401892B09F483C0CE0101965C017B
:1007200010E000E02FB7F8948091550190915601A8
:10073000A0915701B09158012FBF8093650190930C
:100740006601A0936701B09368018DE591E00E9476
:10075000E20097FF08C12FB7F8948091550190915E
:100760005601A0915701B09158012FBF40916501EA
:10077000509166016091670170916801841B950B2F
:10078000A60BB70B4091610150916201609163012A
:100790007091640184179507A607B707B0F28981A5
:1007A000879DC001112490930301809302018AE286
:1007B00091E00E94FF018090020190900301092CBA
:1007C000000CAA08BB084AE0C501B401B7FE0DC081
:1007D0006DE28DE591E00E94460166277727CB0107
:1007E000681979098A099B094AE00E940C0287E28C
:1007F00091E00E94FF01012B99F08A818093000112
:100800008DE391E00E94FF016091000170E090E0B3
:1008100080E04AE00E940C0287E291E00E94FF0122
:100820008FB7F8944091550150915601609157014E
:10083000709158018FBF8091590190915A01A091F8
:100840005B01B0915C01481B590B6A0B7B0B8091DB
:10085000020190910301092E000CAA0BBB0B481753
:1008600059076A077B0750F180910101882351F0F5
:10087000B09000010B2D10E083E00E94870001156D
:10088000110559F560E083E00E94B30180910101F8
:100890008625809301012FB7F8948091550190919E
:1008A0005601A0915701B09158012FBF8093590173
:1008B00090935A01A0935B01B0935C01E114F104A1
:1008C00009F424CF0E941001882309F41FCF0E944D
:1008D00000001CCF02E010E062CF0F3F110511F4C1
:1008E00061E0D1CFF6018491833019F140F4813079
:1008F000B1F08230C9F00038110594F7C3CF8730CA
:1009000011F1883041F18430B1F78091800080622C
:100910008093800010938B0000938A00B7CF84B53A
:10092000806884BDB7BCB2CF84B5806284BDB8BCDA
:10093000ADCF809180008068809380001093890003
:1009400000938800A3CF8091B00080688093B000AE
:10095000B092B3009BCF8091B00080628093B000D2
:10096000B092B40093CFF50181935F01013011057E
:1009700009F4B0CF01E010E0D5CEEDE5F1E013824F
:10098000128288EE93E0A0E0B0E084839583A68392
:10099000B78388E091E09183808385EC90E0958730
:1009A000848784EC90E09787868780EC90E0918B39
:1009B000808B81EC90E0938B828B82EC90E0958B26
:1009C000848B86EC90E0978B868B118E128E138E23
:1009D000148E0895A1E21A2EAA1BBB1BFD010DC0A7
:1009E000AA1FBB1FEE1FFF1FA217B307E407F507DF
:1009F00020F0A21BB30BE40BF50B661F771F881FBB
:100A0000991F1A9469F760957095809590959B0150
:100A1000AC01BD01CF010895EE0FFF1F0590F491C9
:080A2000E02D0994F894FFCFCA
:100A28006401F401000000004601A600D300930110
:100A38000401E200F60048656C6C6F2066726F6D09
:100A480020626C696E6B000D0A00426C696E6B2047
:100A5800726174652073657420746F2000496E7428
:100A6800656E736974792073657420746F20000053
:00000001FF
